:1000000045C0000060C000005EC000005CC0000091
:100010005AC00000FDC2000048C3000093C30000A6
:1000200052C0000050C000004EC000004CC0000094
:100030004AC0000048C0000046C0000044C00000A4
:10004000A0C0000040C000004EC200003CC0000044
:100050003AC0000038C0000036C0000034C00000C4
:1000600032C0000030C000002EC000002CC00000D4
:100070002AC00000D8C000009FC2000024C00000B9
:1000800022C0000020C000001EC0000011241FBEBE
:10009000CFEFD0E1DEBFCDBF11E0A0E0B1E0E2EFF5
:1000A000FBE000E00BBF02C007900D92AE30B1073D
:1000B000D9F721E0AEE0B1E001C01D92A339B2074B
:1000C000E1F7F8D194C59CCF84B38F7784BB0895B2
:1000D00083B3807890910E01911111C0882379F03B
:1000E0002FEF8DEE92E0215080409040E1F700C06C
:1000F000000081E080930E0180E090E0089591304F
:1001000081F4811111C010920E012FEF86E791E06A
:10011000215080409040E1F700C0000081E090E075
:10012000089580E090E0089580E090E00895D0DFA9
:10013000892B71F081E090E020910F013091100146
:10014000232B11F080E090E09093100180930F0139
:1001500080910F0190911001892B31F0E5E6F0E0DC
:100160008081806180830895E5E6F0E080818F7E64
:10017000808372C10895E4E6F0E08081806180832D
:1001800008951F920F920FB60F9211242F938F9301
:100190009F93AF93BF9386E082BF809119019091A6
:1001A0001A01A0911B01B0911C010196A11DB11D66
:1001B0008093190190931A01A0931B01B0931C0125
:1001C000883E9340A105B10520F1109219011092CB
:1001D0001A0110921B0110921C018091150190913F
:1001E0001601A0911701B09118010196A11DB11D32
:1001F0008093150190931601A0931701B0931801F5
:1002000080911101909112010196909312018093B7
:100210001101BF91AF919F918F912F910F900FBEC0
:100220000F901F9018951F920F920FB60F921124E6
:100230008F939F9386E090E090938900809388004D
:100240008091110190911201019690931201809377
:1002500011019F918F910F900FBE0F901F901895D5
:10026000E1E6F0E080818F60808387B3806687BBA2
:100270008EB583608EBD8EB588618EBD8FB5826070
:100280008FBD8FB580688FBD8FB580628FBDE2E670
:10029000F0E08081807F80838081856080838FEF24
:1002A00093E097BD86BD089586E082BF83B78460E2
:1002B00083BF87B7816087BF08959C01E2E6F0E0C5
:1002C0009081907F90839081956090833BBD2ABD03
:1002D00039BD28BD08959C01E2E6F0E09081907F51
:1002E000908390819A6090833BBD2ABD39BD28BD23
:1002F00008959C01E2E6F0E09081907F90839081E8
:10030000956090833BBD2ABD19BC18BC08959C0123
:10031000E2E6F0E09081907F9083908195609083F9
:100320001BBC1ABC39BD28BD08951092140110924F
:1003300013018091870190918801CC971CF5209141
:10034000890130918A0180918B0190918C018217F3
:1003500093073CF481E090E09093140180931301A3
:1003600011C02091890130918A0180918B01909177
:100370008C012817390734F482E090E0909314013F
:100380008093130180918701909188010A9734F43A
:1003900083E090E090931401809313018091130106
:1003A000909114018130910571F01CF4892B39F082
:1003B0004EC08230910511F10397D9F148C088EE03
:1003C00093E07BDF44C08091870190918801CC97B6
:1003D0007CF42091890130918A0180918B01909168
:1003E0008C018217930724F484E893E082DF06C02F
:1003F00080918701909188014E974CF580918701FB
:1004000090918801CC977CF42091890130918A01E8
:1004100080918B0190918C012817390724F484E88E
:1004200093E075DF06C080918701909188014E9717
:1004300074F480918701909188010A9724F488EEE2
:1004400093E049DF04C08091870190918801109268
:1004500014011092130108951BBC1ABC19BC18BCDE
:10046000E2E6F0E08081807F808380818F608083FE
:100470000895809186018C3499F028F4823461F0DB
:10048000863431F00895823579F0833589F0089506
:100490008CEB92E012CF08958CEB92E01CCF089584
:1004A00084E893E026CF089584E893E030CF089560
:1004B000D3CF089560DE08DE55D067D0F5DED0DEFC
:1004C0008ED180E091E09093900180938F01789499
:1004D000D0DF01D22CDE80910F0190911001892B89
:1004E000B9F323DFF5CF1F920F920FB60F921124AD
:1004F0000BB60F922F933F934F935F938F93EF938E
:10050000FF938CB18D3011F08A3079F4E0911D01A8
:10051000F0911E01EE5DFE4F108210921E011092AE
:100520001D0181E080931F010FC020911D013091BA
:100530001E01A9014F5F5F4F50931E0140931D01A3
:10054000F901EE5DFE4F8083FF91EF918F915F91F6
:100550004F913F912F910F900BBE0F900FBE0F90B8
:100560001F901895109290008FEC89B98BB1826022
:100570008BB9E5E9F0E080818660808388E98AB9FB
:1005800008955D9BFECF8CB90895EAE9F0E0808183
:1005900088698083EBE9F0E080818260808310923B
:1005A00098008FEC80939900089580919B00882398
:1005B000E4F780919C0008951F920F920FB60F925E
:1005C00011240BB60F922F933F934F935F936F932A
:1005D0007F938F939F93AF93BF93EF93FF93E5DF49
:1005E0008093860180918601CCDFFF91EF91BF91CE
:1005F000AF919F918F917F916F915F914F913F91BB
:100600002F910F900BBE0F900FBE0F901F9018955B
:100610001F920F920FB60F9211240BB60F922F93C9
:100620003F934F935F936F937F938F939F93AF937A
:10063000BF93EF93FF930C9B05C01092890010921B
:10064000880020C0609188007091890080E090E06F
:10065000DDD120E034E244E759E466D220E030E026
:1006600040E854E461D220E034E244E75BE435D171
:1006700020E030E048E652E430D197D170938A010F
:1006800060938901FF91EF91BF91AF919F918F91FD
:100690007F916F915F914F913F912F910F900BBE82
:1006A0000F900FBE0F901F9018951F920F920FB6CC
:1006B0000F9211240BB60F922F933F934F935F939A
:1006C0006F937F938F939F93AF93BF93EF93FF931A
:1006D0000D9B05C0109289001092880020C0609187
:1006E00088007091890080E090E090D120E034E2B1
:1006F00044E759E419D220E030E040E854E414D251
:1007000020E034E244E75BE4E8D020E030E048E673
:1007100052E4E3D04AD17093880160938701FF913E
:10072000EF91BF91AF919F918F917F916F915F9169
:100730004F913F912F910F900BBE0F900FBE0F90D6
:100740001F9018951F920F920FB60F9211240BB69F
:100750000F922F933F934F935F936F937F938F935A
:100760009F93AF93BF93EF93FF930E9B05C010929F
:1007700089001092880020C06091880070918900E3
:1007800080E090E043D120E034E244E759E4CCD16A
:1007900020E030E040E854E4C7D120E034E244E710
:1007A0005BE49BD020E030E048E652E496D0FDD0F8
:1007B00070938C0160938B01FF91EF91BF91AF918A
:1007C0009F918F917F916F915F914F913F912F9169
:1007D0000F900BBE0F900FBE0F901F9018958AB30D
:1007E00081608ABB82B18F7E82B98AB781608ABFFD
:1007F000EAE8F0E080818560808389B7806189BF05
:100800008AB382608ABB82B18F7D82B98AB78460E5
:100810008ABF80818560808389B7806289BF8AB3FF
:1008200084608ABB82B18F7B82B98AB780618ABFBC
:1008300080818560808389B7806489BF08958091B5
:1008400020019091210182309105B1F08330910512
:1008500021F10197B1F58BB38E7F8BBB85E08A9533
:10086000F1F700008BB381608BBB80E58A95F1F7CF
:100870008BB38E7F8BBB25C08BB38D7F8BBB85E00D
:100880008A95F1F700008BB382608BBB80E58A9577
:10089000F1F78BB38D7F8BBB14C08BB38B7F8BBB7E
:1008A00085E08A95F1F700008BB384608BBB80E50F
:1008B0008A95F1F78BB38B7F8BBB1092210110923D
:1008C00020018091200190912101019690932101B6
:1008D000809320010895B3CF08950CD0EBC0E3D0EE
:1008E00040F0DAD030F021F45F3F19F0CCC0511164
:1008F00015C1CFC0F0D098F39923C9F35523B1F3B4
:10090000951B550BBB27AA2762177307840738F07E
:100910009F5F5F4F220F331F441FAA1FA9F333D0DD
:100920000E2E3AF0E0E830D091505040E695001C91
:10093000CAF729D0FE2F27D0660F771F881FBB1F4D
:10094000261737074807AB07B0E809F0BB0B802D27
:10095000BF01FF2793585F4F2AF09E3F510568F073
:1009600092C0DCC05F3FECF3983EDCF38695779550
:100970006795B795F7959F5FC9F7880F911D969575
:10098000879597F90895E1E0660F771F881FBB1FD1
:10099000621773078407BA0720F0621B730B840B7E
:1009A000BA0BEE1F88F7E095089504D06894B11152
:1009B000B5C0089598D088F09F5790F0B92F992727
:1009C000B751A0F0D1F0660F771F881F991F1AF05A
:1009D000BA95C9F712C0B13081F09FD0B1E0089547
:1009E0009CC0672F782F8827B85F39F0B93FCCF3C8
:1009F000869577956795B395D9F73EF49095809550
:100A0000709561957F4F8F4F9F4F0895E89409C06F
:100A100097FB3EF490958095709561957F4F8F4F31
:100A20009F4F9923A9F0F92F96E9BB279395F69547
:100A3000879577956795B795F111F8CFFAF4BB0FC5
:100A400011F460FF1BC06F5F7F4F8F4F9F4F16C029
:100A5000882311F096E911C0772321F09EE8872FB3
:100A6000762F05C0662371F096E8862F70E060E06F
:100A70002AF09A95660F771F881FDAF7880F9695E8
:100A8000879597F9089597F99F6780E870E060E08F
:100A900008959FEF80EC089500240A941616170617
:100AA00018060906089500240A941216130614065F
:100AB00005060895092E0394000C11F4882352F0C2
:100AC000BB0F40F4BF2B11F460FF04C06F5F7F4F7A
:100AD0008F4F9F4F089557FD9058440F551F59F061
:100AE0005F3F71F04795880F97FB991F61F09F3F1B
:100AF00079F087950895121613061406551FF2CF44
:100B00004695F1DF08C0161617061806991FF1CF93
:100B100086957105610508940895E894BB276627BA
:100B20007727CB0197F908950BD0C4CFB5DF28F014
:100B3000BADF18F0952309F0A6CFABCF1124EECF82
:100B4000CADFA0F3959FD1F3950F50E0551F629F28
:100B5000F001729FBB27F00DB11D639FAA27F00D16
:100B6000B11DAA1F649F6627B00DA11D661F829F3D
:100B70002227B00DA11D621F739FB00DA11D621F22
:100B8000839FA00D611D221F749F3327A00D611D3F
:100B9000231F849F600D211D822F762F6A2F112421
:100BA0009F5750408AF0E1F088234AF0EE0FFF1F74
:100BB000BB1F661F771F881F91505040A9F79E3FAB
:100BC000510570F060CFAACF5F3FECF3983EDCF3A5
:100BD000869577956795B795F795E7959F5FC1F7E8
:100BE000FE2B880F911D9695879597F90895F89497
:020BF000FFCF35
:0E0BF2000000000200000000C1020000000030
:00000001FF
